:100000000C944C000C9466020C9466020C946602EC
:100010000C9466020C9466020C9466020C946602C0
:100020000C9466020C9466020C9466020C946602B0
:100030000C9466020C9466020C9466020C946602A0
:100040000C9466020C9466020C9466020C94660290
:100050000C9466020C9466020C9466020C94660280
:100060000C9466020C9466020C9466020C94660270
:100070000C9466020C9466020C9466020C94660260
:100080000C9466020C9466020C946602010004450E
:100090000004DA044504488011241FBECFEFD0E1EC
:1000A000DEBFCDBFECE8F0E040E019C0B791A7910A
:1000B00037912791079107FD0EC097918791EF0126
:1000C000F92FE82F0BBF07900D92A217B307D9F7AE
:1000D000FE011BBE04C01D92A217B307E1F7E83969
:1000E000F40721F70E9479000C945402F894FFCF92
:0200F0003E00D0
:1000F20085B7806885BF8FE0809364000E943701D6
:1001020061E088EE93E00E94E6010F2EF8EEEF2EFA
:10011200F3E0FF2EF02DDD24D3940EE011E1C5E4CF
:10012200D4E0D8018C91888383FD95C0F801808149
:10013200888383FFFBCFF3E0DF1611F0D39402C074
:10014200DD24D3946D2DC7010E94E60184C0D8013D
:100152008C91888382FFFBCFB1E0DB1611F0DA9439
:1001620004C00F2EF3E0DF2EF02D6D2DC7010E948B
:10017200E6018091450481FD73C0F8018081888386
:1001820081FFFBCFF2E0DF1661F083E0D81689F041
:10019200A1E0DA121BC0F70183A594A5009789F4A8
:1001A20015C0F701ED5BFF4F80819181009759F4F3
:1001B2000DC0F701E55AFF4F80819181009729F424
:1001C20005C07C0103C07C0101C07C016D2DC7010B
:1001D2000E94E6018091450480FD45C0D8018C91C2
:1001E200888380FFFBCFF701A180B280A114B10404
:1001F20009F457016D2DC5010E94E6017501809138
:10020200450484FD8ECFD8018C91888384FFFBCF77
:10021200B1E0DB1621F0E2E0DE1661F017C0D70193
:100222009D96ED91FC919E97309781F061E08C91C3
:1002320009950CC0F701EB5BFF4F0190F081E02DB7
:10024200309721F060E0D7018C9109956D2DC7019F
:100252000E94E60166CF8091450482FD8ACF77CF66
:0C02620080FFBCCFCCCF84FFCECF5BCFA1
:10026E00ACE0B1E188E38C93E5E6F0E08081886054
:10027E00808383E08A95F1F700008081877F8083F9
:10028E0093E09A95F1F7000083EF91E00197F1F773
:10029E0000C000008CE08C9380818860808393E0A6
:1002AE009A95F1F700008081877F808383E08A959D
:1002BE00F1F7000083EF91E00197F1F700C0000025
:1002CE0086E08C9380818860808393E09A95F1F725
:1002DE0000008081877F808383E08A95F1F700009C
:1002EE0083EF91E00197F1F700C0000081E08C935D
:1002FE0080818860808393E09A95F1F70000808179
:10030E00877F808383E08A95F1F700008FE493EC7A
:0A031E000197F1F700C000000895F8
:100328000F931F93CF93DF93A82FCB014130510533
:1003380051F038F04230510541F04330510539F061
:1003480007C030E805C030EC03C034E901C034ED23
:10035800230F20930C11E5E6F0E02081286020832C
:1003680023E02A95F1F700002081277F2083E6EA21
:10037800EA95F1F700C0FC015A2F0E945F0266233C
:10038800E1F00BE011E1C5E6D0E00196A11DF8010E
:100398006083288128602883F3E0FA95F1F700004C
:1003A8002881277F288321E22A95F1F70000FC01A4
:1003B8005A2F0E945F026111E8CFDF91CF911F9100
:0403C8000F910895F4
:1003CC001F93CF93DF93EC01162FBC016D5F7F4F12
:1003DC0080E820E030E040E050E00E949401BE0153
:1003EC00695E7F4F80E820E030E041E050E00E9401
:1003FC009401BE01615D7F4F80E820E030E042E077
:10040C0050E00E949401C95BDF4FBE0180E820E000
:10041C0030E043E050E00E949401412F50E020E096
:10042C0030E060EF70E080E00E949401DF91CF91AA
:04043C001F9108956F
:10044000813099F028F08230D1F0833021F1089585
:10045000662321F08FEF8093470402C01092470477
:100460008091470480930A11089563708091460437
:100470008C7F682B6093460460930D110895637020
:10048000660F660F80914604837F682B6093460455
:1004900060930D110895662321F08FEF8093001172
:0804A000089510920011089567
:1004A800EC010E946B020E946A02CE010E946C025B
:0604B800CE010E94680263
:0E04BE0057FD03C05BBF6791089560810895EC
:0404CC000C9400008C
:0404D0000E94760010
:0204D400089589
:0204D600089587
:0204D800089585
:1004DA000217022020202020204D6F746F722031D5
:1004EA002020202020200020204F4E2020202020C5
:1004FA002020202020202020202000000020022070
:10050A00204F464620202020202020202020202066
:10051A002020000000200220204E4F4E452020209F
:0D052A002020202020202020202000000084
:100537000117022020202020204D6F746F72203178
:100547002020202020200020204F4E202020202067
:100557002020202020202020202000000020022012
:10056700204F464620202020202020202020202009
:100577002020000000200220204E4F4E4520202042
:0D0587002020202020202020202000000027
:10059400032E032020202020204C4544202020200E
:1005A4002020202020200020204C454431202020E1
:1005B40020202020202020202020000000200220B5
:1005C400204C4544322020202020202020202020A0
:1005D4002020000000200220204E4F4E45202020E5
:0D05E40020202020202020202020000000CA
:1005F100002E032020202020204D6F746F722020B8
:100601002020202020200020204D6F746F72312087
:1006110020202020202020202020005D010000201B
:10062100204D6F746F723220202020202020202046
:100631002020000001000020204E4F4E45202020A8
:0D064100202020202020202020200000006C
:10064E00002E0320202020202052656C617920206E
:10065E002020202020200020204F4E20202020204F
:10066E00202020202020000000000000002002207A
:10067E00204F464620202020202020202020200011
:10068E000000000000200220204E4F4E452020206A
:0D069E00202020202020202020200000000F
:1006AB0000E80320202020202053657474696E67B6
:1006BB00206D656E752000202054696D652020200B
:1006CB0020202020202020202020000000000020BF
:1006DB00205370656564732020202020202020206B
:1006EB002020000000000020204368616E6E656CC6
:0D06FB0020202020202020202020000000B2
:1007080000E8032020202020204163747561746F65
:100718007220202020200020204D6F746F7220202E
:100728002020202020202020202000170200002048
:100738002052656C61792020202020202020202054
:100748002020007402000020204C45445320202023
:0D0758002020202020202020202000BA0199
:1007650000E80320202020202053656E736F72203F
:1007750020202020202000202054656D70657261A6
:100785007475726573202020202000000000002071
:100795002048756D69646974792020202020202007
:1007A50020200000000000202044617465202620E0
:0D07B50054696D65202020202020000000E8
:1007C2000000002020202020204D61696E206D65F0
:1007D2006E752020202000202053656E736F727387
:1007E20020202020202020202020008B0300002019
:1007F200204163747561746F7220202020202020B4
:100802002020002E030000202053657474696E6757
:0D0812002020202020202020202000D102C6
:00000001FF
